{"abi":[{"type":"constructor","inputs":[],"stateMutability":"nonpayable"},{"type":"function","name":"claim","inputs":[{"name":"token","type":"address","internalType":"address"}],"outputs":[],"stateMutability":"nonpayable"},{"type":"function","name":"createVestingSchedule","inputs":[{"name":"token","type":"address","internalType":"address"},{"name":"beneficiary","type":"address","internalType":"address"},{"name":"totalAmount","type":"uint128","internalType":"uint128"},{"name":"cliffDuration","type":"uint64","internalType":"uint64"},{"name":"vestingDuration","type":"uint64","internalType":"uint64"}],"outputs":[],"stateMutability":"nonpayable"},{"type":"function","name":"getClaimableAmount","inputs":[{"name":"token","type":"address","internalType":"address"},{"name":"beneficiary","type":"address","internalType":"address"}],"outputs":[{"name":"","type":"uint256","internalType":"uint256"}],"stateMutability":"view"},{"type":"function","name":"getTotalLocked","inputs":[{"name":"token","type":"address","internalType":"address"}],"outputs":[{"name":"","type":"uint256","internalType":"uint256"}],"stateMutability":"view"},{"type":"function","name":"getVestingSchedule","inputs":[{"name":"token","type":"address","internalType":"address"},{"name":"beneficiary","type":"address","internalType":"address"}],"outputs":[{"name":"","type":"tuple","internalType":"struct TokenVesting.VestingSchedule","components":[{"name":"totalAmount","type":"uint128","internalType":"uint128"},{"name":"claimedAmount","type":"uint128","internalType":"uint128"},{"name":"startTime","type":"uint64","internalType":"uint64"},{"name":"cliffDuration","type":"uint64","internalType":"uint64"},{"name":"vestingDuration","type":"uint64","internalType":"uint64"},{"name":"revoked","type":"bool","internalType":"bool"}]}],"stateMutability":"view"},{"type":"function","name":"owner","inputs":[],"outputs":[{"name":"","type":"address","internalType":"address"}],"stateMutability":"view"},{"type":"function","name":"pause","inputs":[],"outputs":[],"stateMutability":"nonpayable"},{"type":"function","name":"paused","inputs":[],"outputs":[{"name":"","type":"bool","internalType":"bool"}],"stateMutability":"view"},{"type":"function","name":"renounceOwnership","inputs":[],"outputs":[],"stateMutability":"nonpayable"},{"type":"function","name":"revoke","inputs":[{"name":"token","type":"address","internalType":"address"},{"name":"beneficiary","type":"address","internalType":"address"}],"outputs":[],"stateMutability":"nonpayable"},{"type":"function","name":"transferOwnership","inputs":[{"name":"newOwner","type":"address","internalType":"address"}],"outputs":[],"stateMutability":"nonpayable"},{"type":"function","name":"unpause","inputs":[],"outputs":[],"stateMutability":"nonpayable"},{"type":"event","name":"OwnershipTransferred","inputs":[{"name":"previousOwner","type":"address","indexed":true,"internalType":"address"},{"name":"newOwner","type":"address","indexed":true,"internalType":"address"}],"anonymous":false},{"type":"event","name":"Paused","inputs":[{"name":"account","type":"address","indexed":false,"internalType":"address"}],"anonymous":false},{"type":"event","name":"TokensClaimed","inputs":[{"name":"token","type":"address","indexed":true,"internalType":"address"},{"name":"beneficiary","type":"address","indexed":true,"internalType":"address"},{"name":"amount","type":"uint256","indexed":false,"internalType":"uint256"}],"anonymous":false},{"type":"event","name":"Unpaused","inputs":[{"name":"account","type":"address","indexed":false,"internalType":"address"}],"anonymous":false},{"type":"event","name":"VestingScheduleCreated","inputs":[{"name":"token","type":"address","indexed":true,"internalType":"address"},{"name":"beneficiary","type":"address","indexed":true,"internalType":"address"},{"name":"totalAmount","type":"uint256","indexed":false,"internalType":"uint256"},{"name":"cliffDuration","type":"uint64","indexed":false,"internalType":"uint64"},{"name":"vestingDuration","type":"uint64","indexed":false,"internalType":"uint64"}],"anonymous":false},{"type":"event","name":"VestingScheduleRevoked","inputs":[{"name":"token","type":"address","indexed":true,"internalType":"address"},{"name":"beneficiary","type":"address","indexed":true,"internalType":"address"},{"name":"unvestedAmount","type":"uint256","indexed":false,"internalType":"uint256"}],"anonymous":false},{"type":"error","name":"EnforcedPause","inputs":[]},{"type":"error","name":"ExpectedPause","inputs":[]},{"type":"error","name":"OwnableInvalidOwner","inputs":[{"name":"owner","type":"address","internalType":"address"}]},{"type":"error","name":"OwnableUnauthorizedAccount","inputs":[{"name":"account","type":"address","internalType":"address"}]},{"type":"error","name":"ReentrancyGuardReentrantCall","inputs":[]},{"type":"error","name":"SafeERC20FailedOperation","inputs":[{"name":"token","type":"address","internalType":"address"}]},{"type":"error","name":"TokenVesting__AlreadyRevoked","inputs":[]},{"type":"error","name":"TokenVesting__AmountExceedsMaximum","inputs":[]},{"type":"error","name":"TokenVesting__AmountMustBeGreaterThanZero","inputs":[]},{"type":"error","name":"TokenVesting__CliffLongerThanVestingDuration","inputs":[]},{"type":"error","name":"TokenVesting__CliffNotReached","inputs":[]},{"type":"error","name":"TokenVesting__NothingToClaim","inputs":[]},{"type":"error","name":"TokenVesting__ScheduleAlreadyExists","inputs":[]},{"type":"error","name":"TokenVesting__ScheduleDoesNotExist","inputs":[]}],"bytecode":{"object":"0x608060405234801561000f575f80fd5b50338061003557604051631e4fbdf760e01b81525f600482015260240160405180910390fd5b61003e81610068565b5060017f9b779b17422d0df92223018b32b4d1fa46e071723d6817e2486d003becc55f00556100b7565b5f80546001600160a01b038381166001600160a01b0319831681178455604051919092169283917f8be0079c531659141344cd1fd0a4f28419497f9722a3daafe3b4186f6b6457e09190a35050565b6110a2806100c45f395ff3fe608060405234801561000f575f80fd5b50600436106100b1575f3560e01c80638da5cb5b1161006e5780638da5cb5b14610139578063bb7dbfe714610153578063dcf3fb2a14610166578063e16dd93614610179578063f2fde38b146102b6578063ffbf7894146102c9575f80fd5b806305c77a3c146100b55780631e83409a146100f05780633f4ba83a146101055780635c975abb1461010d578063715018a6146101295780638456cb5914610131575b5f80fd5b6100dd6100c3366004610ee7565b6001600160a01b03165f9081526002602052604090205490565b6040519081526020015b60405180910390f35b6101036100fe366004610ee7565b6102dc565b005b61010361050b565b5f54600160a01b900460ff1660405190151581526020016100e7565b61010361051d565b61010361052e565b5f546040516001600160a01b0390911681526020016100e7565b6100dd610161366004610f00565b61053e565b610103610174366004610f00565b6105e6565b61024b610187366004610f00565b6040805160c0810182525f80825260208201819052918101829052606081018290526080810182905260a0810191909152506001600160a01b039182165f90815260016020818152604080842094909516835292835290839020835160c08101855281546001600160801b038082168352600160801b9182900416948201949094529101546001600160401b0380821694830194909452600160401b8104841660608301529182049092166080830152600160c01b900460ff16151560a082015290565b6040516100e791905f60c0820190506001600160801b038084511683528060208501511660208401525060408301516001600160401b038082166040850152806060860151166060850152806080860151166080850152505060a0830151151560a083015292915050565b6101036102c4366004610ee7565b610776565b6101036102d7366004610f47565b6107b5565b6102e4610ad0565b6102ec610afe565b6001600160a01b0381165f90815260016020818152604080842033855290915282209081015490916001600160401b03909116900361033e57604051630cd4ce8960e01b815260040160405180910390fd5b6001810154600160c01b900460ff161561036b576040516359ccadcb60e11b815260040160405180910390fd5b600181015461038c906001600160401b03600160401b820481169116610fc9565b6001600160401b03164210156103b5576040516328f987db60e01b815260040160405180910390fd5b5f6103bf82610b28565b9050805f036103e1576040516359ccadcb60e11b815260040160405180910390fd5b6001600160801b0381111561040957604051632bd2158960e01b815260040160405180910390fd5b81548190839060109061042d908490600160801b90046001600160801b0316610ff0565b92506101000a8154816001600160801b0302191690836001600160801b031602179055508060025f856001600160a01b03166001600160a01b031681526020019081526020015f205f8282546104839190611010565b9091555061049d90506001600160a01b0384163383610b78565b60405181815233906001600160a01b038516907fa86305abc2db271df4609aa86a8d044bc11fb36939841bfdad6c1ab2b26e94719060200160405180910390a3505061050860017f9b779b17422d0df92223018b32b4d1fa46e071723d6817e2486d003becc55f0055565b50565b610513610bb2565b61051b610bde565b565b610525610bb2565b61051b5f610c32565b610536610bb2565b61051b610c81565b6001600160a01b038083165f9081526001602081815260408084209486168452939052918120918201549091906001600160401b0316158061058b57506001810154600160c01b900460ff165b15610599575f9150506105e0565b60018101546105ba906001600160401b03600160401b820481169116610fc9565b6001600160401b03164210156105d3575f9150506105e0565b6105dc81610b28565b9150505b92915050565b6105ee610bb2565b6001600160a01b038083165f9081526001602081815260408084209486168452939052918120918201546001600160401b0316900361064057604051630cd4ce8960e01b815260040160405180910390fd5b6001810154600160c01b900460ff161561066d5760405163921710a960e01b815260040160405180910390fd5b5f61067782610cc3565b82549091506001600160801b0316811115610699575080546001600160801b03165b81545f906106b19083906001600160801b0316611010565b60018401805460ff60c01b1916600160c01b1790556001600160a01b0386165f908152600260205260408120805492935083929091906106f2908490611010565b90915550508015610722576107226107115f546001600160a01b031690565b6001600160a01b0387169083610b78565b836001600160a01b0316856001600160a01b03167f526ee0c05ea58103d33bc2e61151607a378afe6778414640f6ef71b0271cb5778360405161076791815260200190565b60405180910390a35050505050565b61077e610bb2565b6001600160a01b0381166107ac57604051631e4fbdf760e01b81525f60048201526024015b60405180910390fd5b61050881610c32565b6107bd610bb2565b6107c5610afe565b826001600160801b03165f036107ee57604051631c8170d160e01b815260040160405180910390fd5b806001600160401b0316826001600160401b0316111561082157604051632c3ef4f560e21b815260040160405180910390fd5b6001600160a01b038086165f908152600160208181526040808420948916845293905291902001546001600160401b03161561087057604051633e88b00360e01b815260040160405180910390fd5b61088e6001600160a01b03861633306001600160801b038716610d56565b6040518060c00160405280846001600160801b031681526020015f6001600160801b03168152602001426001600160401b03168152602001836001600160401b03168152602001826001600160401b031681526020015f151581525060015f876001600160a01b03166001600160a01b031681526020019081526020015f205f866001600160a01b03166001600160a01b031681526020019081526020015f205f820151815f015f6101000a8154816001600160801b0302191690836001600160801b031602179055506020820151815f0160106101000a8154816001600160801b0302191690836001600160801b031602179055506040820151816001015f6101000a8154816001600160401b0302191690836001600160401b0316021790555060608201518160010160086101000a8154816001600160401b0302191690836001600160401b0316021790555060808201518160010160106101000a8154816001600160401b0302191690836001600160401b0316021790555060a08201518160010160186101000a81548160ff021916908315150217905550905050826001600160801b031660025f876001600160a01b03166001600160a01b031681526020019081526020015f205f828254610a689190611023565b9091555050604080516001600160801b03851681526001600160401b0380851660208301528316918101919091526001600160a01b0380861691908716907fd004a08e41437d93484d88cb5d85b2214b93a7e6962710ce4107ed2920bfbff690606001610767565b610ad8610d92565b60027f9b779b17422d0df92223018b32b4d1fa46e071723d6817e2486d003becc55f0055565b5f54600160a01b900460ff161561051b5760405163d93c066560e01b815260040160405180910390fd5b5f80610b3383610cc3565b83549091506001600160801b0316811115610b55575081546001600160801b03165b8254610b7190600160801b90046001600160801b031682611010565b9392505050565b610b858383836001610dd4565b610bad57604051635274afe760e01b81526001600160a01b03841660048201526024016107a3565b505050565b5f546001600160a01b0316331461051b5760405163118cdaa760e01b81523360048201526024016107a3565b610be6610e36565b5f805460ff60a01b191690557f5db9ee0a495bf2e6ff9c91a7834c1ba4fdd244a5e8aa4e537bd38aeae4b073aa335b6040516001600160a01b03909116815260200160405180910390a1565b5f80546001600160a01b038381166001600160a01b0319831681178455604051919092169283917f8be0079c531659141344cd1fd0a4f28419497f9722a3daafe3b4186f6b6457e09190a35050565b610c89610afe565b5f805460ff60a01b1916600160a01b1790557f62e78cea01bee320cd4e420270b5ea74000d11b0c9f74754ebdbfc544b05a258610c153390565b60018101545f90610ce6906001600160401b03600160801b820481169116610fc9565b6001600160401b03164210610d035750546001600160801b031690565b60018201545f90610d1d906001600160401b031642611010565b60018401548454919250600160801b90046001600160401b031690610d4c9083906001600160801b0316611036565b610b71919061104d565b610d64848484846001610e5f565b610d8c57604051635274afe760e01b81526001600160a01b03851660048201526024016107a3565b50505050565b7f9b779b17422d0df92223018b32b4d1fa46e071723d6817e2486d003becc55f005460020361051b57604051633ee5aeb560e01b815260040160405180910390fd5b60405163a9059cbb60e01b5f8181526001600160a01b038616600452602485905291602083604481808b5af1925060015f51148316610e2a578383151615610e1e573d5f823e3d81fd5b5f873b113d1516831692505b60405250949350505050565b5f54600160a01b900460ff1661051b57604051638dfc202b60e01b815260040160405180910390fd5b6040516323b872dd60e01b5f8181526001600160a01b038781166004528616602452604485905291602083606481808c5af1925060015f51148316610ebb578383151615610eaf573d5f823e3d81fd5b5f883b113d1516831692505b604052505f60605295945050505050565b80356001600160a01b0381168114610ee2575f80fd5b919050565b5f60208284031215610ef7575f80fd5b610b7182610ecc565b5f8060408385031215610f11575f80fd5b610f1a83610ecc565b9150610f2860208401610ecc565b90509250929050565b80356001600160401b0381168114610ee2575f80fd5b5f805f805f60a08688031215610f5b575f80fd5b610f6486610ecc565b9450610f7260208701610ecc565b935060408601356001600160801b0381168114610f8d575f80fd5b9250610f9b60608701610f31565b9150610fa960808701610f31565b90509295509295909350565b634e487b7160e01b5f52601160045260245ffd5b6001600160401b03818116838216019080821115610fe957610fe9610fb5565b5092915050565b6001600160801b03818116838216019080821115610fe957610fe9610fb5565b818103818111156105e0576105e0610fb5565b808201808211156105e0576105e0610fb5565b80820281158282048414176105e0576105e0610fb5565b5f8261106757634e487b7160e01b5f52601260045260245ffd5b50049056fea2646970667358221220c3e09cda578281b901e3a072d5949de8667ef8c2493ffe0bc22cbcfba401747964736f6c63430008180033","linkReferences":{}},"methodIdentifiers":{"claim(address)":"1e83409a","createVestingSchedule(address,address,uint128,uint64,uint64)":"ffbf7894","getClaimableAmount(address,address)":"bb7dbfe7","getTotalLocked(address)":"05c77a3c","getVestingSchedule(address,address)":"e16dd936","owner()":"8da5cb5b","pause()":"8456cb59","paused()":"5c975abb","renounceOwnership()":"715018a6","revoke(address,address)":"dcf3fb2a","transferOwnership(address)":"f2fde38b","unpause()":"3f4ba83a"},"id":33}